:100000000C945D000C9485000C9485000C94850084
:100010000C9485000C9485000C9485000C9485004C
:100020000C9485000C9485000C9485000C9485003C
:100030000C9485000C9485000C9485000C9485002C
:100040000C94A7060C9485000C9417070C94F106E9
:100050000C9485000C9485000C9485000C9485000C
:100060000C9485000C94850000000008000201003B
:100070000003040700000000000000000000000072
:10008000250028002B0000000000240027002A0083
:10009000040404040404040402020202020203032E
:1000A0000303030301020408102040800102040836
:1000B0001020010204081020B30711241FBECFEF47
:1000C000D8E0DEBFCDBF22E0A4E6B1E001C01D92C2
:1000D000AF39B207E1F711E0A0E0B1E0E4EBFFE1F6
:1000E00002C005900D92A436B107D9F710E0CDE516
:1000F000D0E004C02197FE010E94330CCC35D1071B
:10010000C9F70E9408080C94D80F0C94000090E0E6
:10011000FC01EC55FF4F249180579F4FFC018491C7
:10012000882399F090E0880F991FFC01EA57FF4F50
:10013000A591B491FC01E458FF4F859194918FB73C
:10014000F894EC91E22BEC938FBF089590E0FC01C2
:10015000E859FF4F2491FC01EC55FF4F3491FC010D
:10016000E057FF4FE491EE23C9F0222339F023300A
:1001700001F1A8F4213019F1223029F1F0E0EE0F5D
:10018000FF1FE458FF4FA591B4918FB7F894EC91FD
:10019000611126C030953E233C938FBF08952730D0
:1001A000A9F02830C9F0243049F7809180008F7D74
:1001B00003C0809180008F7780938000DFCF84B56B
:1001C0008F7784BDDBCF84B58F7DFBCF8091B0006E
:1001D0008F778093B000D2CF8091B0008F7DF9CF20
:1001E0003E2BDACF3FB7F89480916A0190916B0172
:1001F000A0916C01B0916D0126B5A89B05C02F3F61
:1002000019F00196A11DB11D3FBFBA2FA92F982F3C
:100210008827BC01CD01620F711D811D911D42E037
:10022000660F771F881F991F4A95D1F708952FB73A
:10023000F8946091660170916701809168019091D6
:1002400069012FBF0895AF92BF92CF92DF92EF92D4
:10025000FF920F931F93CF93DF936C017B018B0170
:10026000040F151FEB015E01AE18BF08C017D107C0
:1002700059F06991D601ED91FC910190F081E02D4A
:10028000C6010995892B79F7C501DF91CF911F919F
:100290000F91FF90EF90DF90CF90BF90AF900895B7
:1002A000FC01538D448D252F30E0842F90E0821B7C
:1002B000930B541710F0CF96089501970895FC0101
:1002C000918D828D981761F0A28DAE0FBF2FB11D59
:1002D0005D968C91928D9F5F9F73928F90E00895B1
:1002E0008FEF9FEF08950F931F930E941701609364
:1002F00076017093770180937801909379018EE66F
:1003000091E00E945F0197FF1DC00E9417010091BC
:100310007601109177012091780130917901601B6D
:10032000710B820B930B009172011091730120915C
:100330007401309175016017710782079307F8F215
:100340008FEF9FEF1F910F910895FC01918D828D8A
:10035000981731F0828DE80FF11D858D90E008959A
:100360008FEF9FEF0895FC01918D228D892F90E0F2
:10037000805C9F4F821B91098F73992708958EE6A9
:1003800091E00E94B30121E0892B09F420E0822F43
:10039000089580E090E0892B29F00E94BF0181112F
:1003A0000C9400000895FC01A48DA80FB92FB11D75
:1003B000A35ABF4F2C91848D90E001968F7399279B
:1003C000848FA689B7892C93A089B1898C91837079
:1003D00080648C93938D848D981306C00288F38972
:1003E000E02D80818F7D80830895EF92FF920F939F
:1003F0001F93CF93DF93EC0181E0888F9B8D8C8DD1
:1004000098131AC0E889F989808185FF15C09FB7C4
:10041000F894EE89FF896083E889F9898081837087
:10042000806480839FBF81E090E0DF91CF911F9136
:100430000F91FF90EF900895F62E0B8D10E00F5F57
:100440001F4F0F731127E02E8C8D8E110CC00FB62D
:1004500007FCFACFE889F989808185FFF5CFCE01C5
:100460000E94D301F1CFEB8DEC0FFD2FF11DE35A6C
:10047000FF4FF0829FB7F8940B8FEA89FB89808148
:100480008062CFCFCF93DF93EC01888D8823B9F0C2
:10049000AA89BB89E889F9898C9185FD03C080818F
:1004A00086FD0DC00FB607FCF7CF8C9185FFF2CF0C
:1004B000808185FFEDCFCE010E94D301E9CFDF918E
:1004C000CF910895CF93DF93EC018FEF9FEF77FDEE
:1004D00002C081E090E09EA78DA781E08CA38FA74A
:1004E0006C897D8990E080E00E94BB0A9B01AC0191
:1004F0002DA33EA34FA358A760E070E08AE794E4E1
:100500000E94A60C69A77AA78BA79CA70E94170137
:1005100068A379A38AA39BA3DF91CF910895FC01DF
:1005200001900020E9F73197AF01481B590BBC013E
:100530008EE691E00C9423018F929F92AF92BF922E
:100540000F931F93CF93DF93CDB7DEB7A1970FB66D
:10055000F894DEBF0FBECDBF19A2423008F44AE0C6
:100560008E010F5D1F4F842E912CB12CA12CA50163
:1005700094010E94110CE62FB901CA01EA30F4F48B
:10058000E05DD801EE938D01232B242B252B79F7E9
:1005900090E080E0109719F0CD010E948F02A196A3
:1005A0000FB6F894DEBF0FBECDBFDF91CF911F9184
:1005B0000F91BF90AF909F908F900895E95CE1CF2D
:1005C000FC0180819181009711F00C94820E0895B6
:1005D0004F925F926F927F928F929F92AF92BF9253
:1005E000CF92DF92EF92FF920F931F93CF936B0105
:1005F0007C01742EAC019B010E94CC0D882399F0E4
:1006000084E291E0CF911F910F91FF90EF90DF90E6
:10061000CF90BF90AF909F908F907F906F905F90A2
:100620004F900C948F0246015701E894B7F82FEFD2
:100630003FEF4FE75FE7C501B4010E94CC0D811188
:100640000DC02FEF3FEF4FE75FE7C501B4010E94F8
:10065000B60A18161CF488E291E0D4CF2FEF3FEFD2
:100660004FE75FE4C701B6010E944E0D18161CF457
:100670008CE291E0C7CF2FEF3FEF4FE75FECC70170
:10068000B6010E94B60A87FDF3CF20E030E0A90151
:10069000C701B6010E94B60A10E000E087FF0AC059
:1006A0006DE28EE691E00E94F5018C01F7FAF0947C
:1006B000F7F8F094C0E060E070E080E09FE37C1623
:1006C00041F020E030E040E251E40E94A60CCF5F10
:1006D000F6CFA70196010E943A0C2B013C010E9423
:1006E0001F0D4B015C014AE00E949C027C01E00E60
:1006F000F11ECC23C1F1C501B4010E94BB0A9B01CC
:10070000AC01C301B2010E94390C4B015C016EE2E5
:100710008EE691E00E94F501E80EF91EC15018F135
:1007200020E030E040E251E4C501B4010E941C0B1E
:100730002B013C010E941F0D4B01B12CA12C4AE062
:10074000C501B4010E949C02E80EF91EC501B40166
:100750000E94BB0A9B01AC01C301B2010E94390C8B
:100760004B015C01DBCFC701CF911F910F91FF902F
:10077000EF90DF90CF90BF90AF909F908F907F9041
:100780006F905F904F9008950F931F93CF93DF93D7
:10079000EC0188819981009759F02A813B812617C5
:1007A000370730F081E0DF91CF911F910F910895CD
:1007B0008B016F5F7F4F0E940B0F009759F0998359
:1007C00088831B830A832C813D81232B59F7FC01ED
:1007D0001082E8CF80E0E7CFCF92DF92EF92FF92D6
:1007E0000F931F93CF93DF9300D0CDB7DEB78C016B
:1007F000C62EFC011182108213821282158214828D
:1008000070E060E00E94C403F80120813181811111
:1008100037C02115310519F0C9010E94820EF80177
:100820001182108215821482138212820E94730137
:100830000C2C000CDD0897FD2BC08C159D0541F19B
:1008400089831A82F801E480F580FFEFEF1AFF0A2E
:10085000B701C8010E94C403882379F0F801208100
:10086000318184819581BE016F5F7F4F820F931F1D
:100870000E94D10FF801F582E4820E947301DBCF60
:100880001582148266E471E0C9010E94D10FCECFB7
:10089000C8010F900F90DF91CF911F910F91FF90A2
:1008A000EF90DF90CF9008954F925F926F927F927A
:1008B0008F929F92AF92BF92CF92DF92EF92FF9270
:1008C0000F931F93CF93DF9300D000D000D0CDB70C
:1008D000DEB7FC0127A5222339F19E838D830E9478
:1008E0001701ED81FE8100A111A122A133A1601B9E
:1008F000710B820B930B0E94BB0AED81FE8121A537
:1009000032A543A554A50E944E0D87FD0DC0ED8173
:10091000FE8184A181111FC0208D318D868D978D20
:1009200028173907C1F417A626960FB6F894DEBF2C
:100930000FBECDBFDF91CF911F910F91FF90EF9030
:10094000DF90CF90BF90AF909F908F907F906F90EF
:100950005F904F90089561E0ED81FE8185A596A599
:10096000019709F060E0ED81FE8182810E94A6007E
:1009700061E0ED81FE8180810E94A60003E210E02B
:10098000C8010197F1F760E0ED81FE8180810E944E
:10099000A600C8010197F1F7ED81FE8105A516A516
:1009A000608C718C600E711E718E608E268537850D
:1009B0004089518960E070E080E89FE30E94A60CC6
:1009C0006B017C01B801110F880B990B0E94BD0AC5
:1009D0009B01AC01C701B6010E941C0B9B01AC013D
:1009E000ED81FE81628D738D848D958D0E943A0C10
:1009F000ED81FE81628F738F848F958FC5A0D6A005
:100A0000E7A0F0A46689778990E080E00E94BB0AA5
:100A10004B015C01AC019B010E943A0C69837A8313
:100A20008B839C83ED81FE81668D778D66197709B6
:100A300077FF03C0719561957109072E000C880B33
:100A4000990B0E94BD0A2B013C01A7019601C70129
:100A5000B6010E941C0B29813A814B815C810E9466
:100A6000A60C9B01AC010E943A0C9B01AC01C30196
:100A7000B2010E94B60A87FF27C020E030E040E0C4
:100A80005FE3C301B2010E941C0B29813A814B81B3
:100A90005C810E941C0B0E948C0D2B013C01ED819E
:100AA000FE816489758990E080E00E94BB0A7B0129
:100AB0008C019B01AC01B201C3010E94B60A87FF01
:100AC00044C02701380141C0ED81FE8162897389EC
:100AD00090E080E00E94BB0A2B013C01A701960137
:100AE0000E944E0D18168CF50E941701ED81FE81B3
:100AF00000A111A122A133A1601B710B820B930BEA
:100B00000E94BB0A20E030E04AE754E40E94A60CB1
:100B1000A50194010E941C0BA70196010E943A0CAA
:100B20002B013C01ED81FE816289738990E080E0B8
:100B30000E94BB0A7B018C019B01AC01B201C30185
:100B40000E944E0D18160CF4BCCFC201D301ED81EA
:100B5000FE8185A396A3A7A3B0A79201A30160E09D
:100B600070E08AE794E40E94A60CED81FE8161A703
:100B700072A783A794A70E941701ED81FE8160A34D
:100B800071A382A393A3D0CECF93DF93EC01CB01CB
:100B9000BA012E853F85488959890E941C0B0E9405
:100BA000530D7F8F6E8F288D398D8FEF9FEF261716
:100BB000370714F481E090E09EA78DA781E08FA70E
:100BC0006C897D8990E080E00E94BB0A9B01AC01AA
:100BD0002DA33EA34FA358A760E070E08AE794E4FA
:100BE0000E94A60C69A77AA78BA79CA70E94170151
:100BF00068A379A38AA39BA3DF91CF9108954F9215
:100C00005F926F927F928F929F92AF92BF92CF929C
:100C1000DF92EF92FF920F931F93CF93DF93CDB7A5
:100C2000DEB72C970FB6F894DEBF0FBECDBFE982BA
:100C3000FA820B831C832D833E834F8358876987F9
:100C40007A878B879C87C980DA80EB80FC804D8017
:100C50005E806F80788489849A84AB84BC8420E031
:100C600030E04CE053E4C701B6010E94B60A40E010
:100C700050E06CE073E4181654F020E030E040E2FD
:100C800050E4C701B6010E941C0BAB01BC018BE014
:100C900092E00E94C405A3019201C701B6010E941F
:100CA0004E0D40E050E0BA0118167CF4A301920109
:100CB000C701B6010E94390C905820E030E040E2B4
:100CC00050E40E941C0BAB01BC018BE392E00E943C
:100CD000C4052DEC3CEC44EB50E4C501B4010E948A
:100CE0001C0BAB01BC018BE692E00E94C405809115
:100CF0003A02811108C080916A02811104C080917A
:100D00009A02882369F08BE092E00E9454048BE3FE
:100D100092E00E9454048BE692E00E945404E7CFD4
:100D20002C960FB6F894DEBF0FBECDBFDF91CF91EA
:100D30001F910F91FF90EF90DF90CF90BF90AF90F9
:100D40009F908F907F906F905F904F9008951F922B
:100D50000F920FB60F9211242F933F938F939F936F
:100D6000AF93BF938091660190916701A091680154
:100D7000B09169013091650123E0230F2D3758F5BB
:100D80000196A11DB11D209365018093660190938A
:100D90006701A0936801B093690180916A01909105
:100DA0006B01A0916C01B0916D010196A11DB11D67
:100DB00080936A0190936B01A0936C01B0936D01D5
:100DC000BF91AF919F918F913F912F910F900FBE47
:100DD0000F901F90189526E8230F0296A11DB11DB4
:100DE000D2CF1F920F920FB60F9211242F933F93E1
:100DF0004F935F936F937F938F939F93AF93BF9323
:100E0000EF93FF938EE691E00E94D301FF91EF9163
:100E1000BF91AF919F918F917F916F915F914F9112
:100E20003F912F910F900FBE0F901F9018951F921A
:100E30000F920FB60F9211242F938F939F93EF93DE
:100E4000FF93E0917E01F0917F018081E091840128
:100E5000F091850182FD1BC09081809187018F5F99
:100E60008F7320918801821741F0E0918701F0E0B3
:100E7000E259FE4F958F80938701FF91EF919F91EB
:100E80008F912F910F900FBE0F901F90189580811A
:100E9000F4CFEF92FF920F931F93CF93DF93EC0168
:100EA000E62EE72FF42EC901B80106E616E626EE77
:100EB0003FE30C831D832E833F8320E130E039879D
:100EC000288720E83EE33B8B2A8B20E436E03D8BED
:100ED0002C8B28EC30E03F8B2E8B198E188E1A8EBF
:100EE0001B8E1C8E1D8E1F8E1E8E18A219A21AA27A
:100EF0001BA21CA21DA21EA21FA218A619A61AA6FA
:100F00001BA61CA621E030E03EA72DA71FA6E88265
:100F1000E9834A835B836A877B878C879D8720E090
:100F200030E040E851E40E941C0B26E636E646EE2F
:100F30005FE30E94A60C6E877F87888B998B8E2D2E
:100F40000E9487008F2D0E94870060E08E2D0E94F6
:100F5000A60060E08F2DDF91CF911F910F91FF9040
:100F6000EF900C94A6000F931F93EEE6F1E013822E
:100F7000128288EE93E0A0E0B0E084839583A6839C
:100F8000B78386E191E09183808385EC90E095873B
:100F9000848784EC90E09787868780EC90E0918B43
:100FA000808B81EC90E0938B828B82EC90E0958B30
:100FB000848B86EC90E0978B868B118E128E138E2D
:100FC000148E00E010E020E230E445E050E062E002
:100FD00070E08BE092E00E94490700E010E020E220
:100FE00030E446E050E063E070E08BE392E00E9482
:100FF00049070DEC1CEC24EB30E447E050E064E0E2
:1010000070E08BE692E00E9449071F910F910895CE
:10101000CF93DF93CDB7DEB76E970FB6F894DEBFF0
:101020000FBECDBF789484B5826084BD84B58160E5
:1010300084BD85B5826085BD85B5816085BD8091A3
:101040006E00816080936E0010928100809181001B
:101050008260809381008091810081608093810013
:10106000809180008160809380008091B1008460D5
:101070008093B1008091B00081608093B000809136
:101080007A00846080937A0080917A0082608093F5
:101090007A0080917A00816080937A0080917A0052
:1010A000806880937A001092C100E0917E01F091F7
:1010B0007F0182E08083E0917A01F0917B011082D0
:1010C000E0917C01F0917D0180E1808310928601A6
:1010D000E0918201F091830186E08083E0918001BC
:1010E000F0918101808180618083E0918001F091A5
:1010F0008101808188608083E0918001F09181018D
:10110000808180688083E0918001F09181018081FD
:101110008F7D808380E391E00E948F0284E491E0E0
:101120000E948F026AE0CE0101960E94EC03CE017C
:1011300001960E94E00284EF91E0A0E0B0E080938D
:10114000720190937301A0937401B0937501209183
:1011500013023091140285E0829FA001839F500DFD
:1011600011245093200240931F024CE251E0249F2F
:10117000B001259F700D349F700D112470931E02D5
:1011800060931D0220E43FE130932202209321026C
:101190006091430270914402869FF001879FF00D99
:1011A0001124F0935002E0934F02649FF001659F79
:1011B000F00D749FF00D1124F0934E02E0934D0258
:1011C00030935202209351022091730230917402A5
:1011D000829FA001839F500D112450938002409361
:1011E0007F0248E057E0249FC001259F900D349F67
:1011F000900D112490937E0280937D0280EE9EE2FA
:10120000909382028093810288E00E9487008BE0A5
:101210000E94870060E088E00E94A6000E94F20021
:101220006B017C018CE2882E99249394A12CB12C23
:101230000E94F2006C197D098E099F09683E734077
:1012400081059105A8F321E0821A9108A108B1084F
:1012500088EEC80E83E0D81EE11CF11C81149104B5
:10126000A104B10429F78CE0E6E0F1E0DE0111967B
:1012700001900D928A95E1F7E980FA800B811C813B
:101280002D813E814F81588569857A858B859C8526
:101290000E94FF051D861E861F86188A198A1A8AD3
:1012A0001B8A1C8A1D8A1E8A1F8A188EE12CFE84C6
:1012B0000F85188920E03A894B895C8960E07E8936
:1012C0008F89988D0E94FF0500E010E0332433944D
:1012D0008EE691E00E94B301892B09F4AEC069E06B
:1012E000CE0149960E94EC03CE0149960E94E0028D
:1012F00060E2CE0149960E94EC03898D9A8D009799
:1013000009F4C5C00E947A0A0E94BD0A2B013C0163
:10131000CE0149960E94E00260E2CE0149960E9409
:10132000EC03898D9A8D009709F4B5C00E947A0A62
:101330000E94BD0A4B015C01CE0149960E94E00269
:101340006AE0CE0149960E94EC03898D9A8D009740
:1013500009F4A5C00E947A0A0E94BD0A6B017C01B3
:10136000CE0149960E94E00220E030E0A901C301CD
:10137000B2010E94B60A882309F495C0C301B201E4
:101380000E94180D8BE092E00E94620220E030E0A3
:10139000A901C501B4010E94B60A882309F490C0CE
:1013A000C501B4010E94180D8BE392E00E94620215
:1013B00020E030E0A901C701B6010E94B60A8823E7
:1013C00009F48BC0C701B6010E94180D8BE692E0AC
:1013D0000E9462023092640187E491E00E948F02D1
:1013E0006091250270912602809127029091280237
:1013F00042E00E94E80280E591E00E948F02609145
:10140000550270915602809157029091580242E025
:101410000E94E8028AE591E00E948F0260918502B5
:1014200070918602809187029091880242E00E942A
:10143000E80284E491E00E948F0280916401882395
:10144000D1F08BE092E00E9454048BE392E00E9482
:1014500054048BE692E00E94540480913A02811178
:101460000AC080916A02811106C080919A0281119E
:1014700002C0109264010115110509F429CF0E94E0
:10148000BF01882309F424CF0E94000021CF60E02F
:1014900070E0CB0139CF60E070E0CB0149CF60E074
:1014A00070E0CB0159CF10923A0210922F02809136
:1014B00023029091240290932A028093290266CFFE
:1014C00010926A0210925F0280915302909154022E
:1014D00090935A02809359026BCF10929A02109205
:1014E0008F02809183029091840290938A0280936C
:1014F000890270CF1F93FC0199278827BC01E894CB
:1015000011911032E9F3193010F01E30C8F31B327C
:1015100051F01D3249F4689406C00E94A10A610F7F
:10152000711D811D911D119110531A30B0F33EF4BD
:1015300090958095709561957F4F8F4F9F4F1F912C
:101540000895592F482F372F262F660F771F881F92
:10155000991F660F771F881F991F620F731F841FC3
:10156000951F660F771F881F991F08950E94F80A1C
:1015700008F481E00895E89409C097FB3EF4909543
:101580008095709561957F4F8F4F9F4F9923A9F05C
:10159000F92F96E9BB279395F695879577956795EB
:1015A000B795F111F8CFFAF4BB0F11F460FF1BC02F
:1015B0006F5F7F4F8F4F9F4F16C0882311F096E9C2
:1015C00011C0772321F09EE8872F762F05C0662370
:1015D00071F096E8862F70E060E02AF09A95660F29
:1015E000771F881FDAF7880F9695879597F90895E2
:1015F000990F0008550FAA0BE0E8FEEF1616170624
:10160000E807F907C0F012161306E407F50798F08B
:10161000621B730B840B950B39F40A2661F0232BA4
:10162000242B252B21F408950A2609F4A140A69520
:101630008FEF811D811D08950E942F0B0C94A00B2C
:101640000E94920B38F00E94990B20F0952311F024
:101650000C94890B0C948F0B11240C94D40B0E94C6
:10166000B10B70F3959FC1F3950F50E0551F629F2A
:10167000F001729FBB27F00DB11D639FAA27F00DEB
:10168000B11DAA1F649F6627B00DA11D661F829F12
:101690002227B00DA11D621F739FB00DA11D621FF7
:1016A000839FA00D611D221F749F3327A00D611D14
:1016B000231F849F600D211D822F762F6A2F1124F6
:1016C0009F5750409AF0F1F088234AF0EE0FFF1F29
:1016D000BB1F661F771F881F91505040A9F79E3F80
:1016E000510580F00C94890B0C94D40B5F3FE4F30C
:1016F000983ED4F3869577956795B795F795E795D6
:101700009F5FC1F7FE2B880F911D9695879597F9DE
:10171000089597F99F6780E870E060E008959FEF73
:1017200080EC089500240A94161617061806090678
:10173000089500240A941216130614060506089547
:10174000092E0394000C11F4882352F0BB0F40F4CF
:10175000BF2B11F460FF04C06F5F7F4F8F4F9F4F0F
:10176000089557FD9058440F551F59F05F3F71F091
:101770004795880F97FB991F61F09F3F79F08795F8
:101780000895121613061406551FF2CF4695F1DF81
:1017900008C0161617061806991FF1CF8695710511
:1017A000610508940895E894BB2766277727CB0145
:1017B00097F908952F923F924F925F926F927F9286
:1017C0008F929F92AF92BF92CF92DF92EF92FF9251
:1017D0000F931F93CF93DF93CDB7DEB7CA1BDB0BFD
:1017E0000FB6F894DEBF0FBECDBF09942A883988A2
:1017F00048885F846E847D848C849B84AA84B984A9
:10180000C884DF80EE80FD800C811B81AA81B981B4
:10181000CE0FD11D0FB6F894DEBF0FBECDBFED01C8
:101820000895A1E21A2EAA1BBB1BFD010DC0AA1F21
:10183000BB1FEE1FFF1FA217B307E407F50720F039
:10184000A21BB30BE40BF50B661F771F881F991FB4
:101850001A9469F760957095809590959B01AC01FD
:10186000BD01CF010895EE0FFF1F0590F491E02D0B
:1018700009945058BB27AA270E94510C0C94A00B26
:101880000E94920B38F00E94990B20F039F49F3F90
:1018900019F426F40C948F0B0EF4E095E7FB0C94EE
:1018A000890BE92F0E94B10B58F3BA17620773072F
:1018B0008407950720F079F4A6F50C94D30B0EF469
:1018C000E0950B2EBA2FA02D0B01B90190010C0150
:1018D000CA01A0011124FF27591B99F0593F50F468
:1018E000503E68F11A16F040A22F232F342F4427C0
:1018F000585FF3CF469537952795A795F0405395B8
:10190000C9F77EF41F16BA0B620B730B840BBAF087
:101910009150A1F0FF0FBB1F661F771F881FC2F7F2
:101920000EC0BA0F621F731F841F48F48795779506
:101930006795B795F7959E3F08F0B0CF9395880FC0
:1019400008F09927EE0F9795879508950E94BA0C95
:101950000C94A00B0E94990B58F00E94920B40F03F
:1019600029F45F3F29F00C94890B51110C94D40B8E
:101970000C948F0B0E94B10B68F39923B1F355239C
:1019800091F3951B550BBB27AA2762177307840792
:1019900038F09F5F5F4F220F331F441FAA1FA9F328
:1019A00035D00E2E3AF0E0E832D091505040E69516
:1019B000001CCAF72BD0FE2F29D0660F771F881F77
:1019C000BB1F261737074807AB07B0E809F0BB0B6A
:1019D000802DBF01FF2793585F4F3AF09E3F51057E
:1019E00078F00C94890B0C94D40B5F3FE4F3983E91
:1019F000D4F3869577956795B795F7959F5FC9F767
:101A0000880F911D9695879597F90895E1E0660FE7
:101A1000771F881FBB1F621773078407BA0720F060
:101A2000621B730B840BBA0BEE1F88F7E0950895C9
:101A30000E941F0D6894B1110C94D40B08950E945C
:101A4000B90B88F09F5798F0B92F9927B751B0F08C
:101A5000E1F0660F771F881F991F1AF0BA95C9F732
:101A600014C0B13091F00E94D30BB1E008950C94F2
:101A7000D30B672F782F8827B85F39F0B93FCCF3A5
:101A8000869577956795B395D9F73EF490958095AF
:101A9000709561957F4F8F4F9F4F08950E94F80A70
:101AA00008F48FEF08950E94B90B58F19E5760F12A
:101AB0009851A0F0E9F0983020F5092E9927660F8B
:101AC000771F881F991F0A94D1F712C0062E672F1F
:101AD000782F8827985F11F4000C07C0993FB4F362
:101AE0008695779567959395D9F7611D711D811D31
:101AF0003EF490958095709561957F4F8F4F9F4FE5
:101B0000089568940C94D40B0C94D30B19F416F428
:101B10000C948F0B0C94D10D0E94B90BB8F3992340
:101B2000C9F3B6F39F57550B87FF0E94DF0D0024C2
:101B3000A0E640EA900180585695979528F4805C7D
:101B4000660F771F881F20F026173707480730F4E5
:101B5000621B730B840B202931294A2BA6951794FD
:101B60000794202531254A2758F7660F771F881FCD
:101B700020F026173707480730F4620B730B840BED
:101B8000200D311D411DA09581F7B901842F915879
:101B9000880F9695879508950E94F80A880B990BEF
:101BA00008959F3F31F0915020F487957795679580
:101BB000B795880F911D9695879597F9089591503F
:101BC0005040660F771F881FD2F708950F931F9319
:101BD000CF93DF938230910510F482E090E0E091A2
:101BE0009D02F0919E0230E020E0B0E0A0E030974E
:101BF00099F42115310509F44AC0281B390B24300A
:101C00003105D8F58A819B816115710589F1FB0148
:101C100093838283FE0111C040815181028113812F
:101C200048175907E0F04817590799F4109761F0E1
:101C300012960C93129713961C933296CF01DF9154
:101C4000CF911F910F91089500939D0210939E02D2
:101C5000F4CF2115310551F04217530738F0A9018F
:101C6000DB019A01BD01DF01F801C1CFEF01F9CF1E
:101C700090939E0280939D02CDCFFE01E20FF31F51
:101C8000819391932250310939832883D7CF2091B2
:101C90009B0230919C02232B41F420910201309150
:101CA000030130939C0220939B022091000130910C
:101CB00001012115310541F42DB73EB740910401D2
:101CC00050910501241B350BE0919B02F0919C0281
:101CD000E217F307A0F42E1B3F0B2817390778F003
:101CE000AC014E5F5F4F2417350748F04E0F5F1F62
:101CF00050939C0240939B02819391939FCFF0E07D
:101D0000E0E09CCFCF93DF930097E9F0FC0132979E
:101D100013821282A0919D02B0919E02ED0130E0EB
:101D200020E01097A1F420813181820F931F209130
:101D30009B0230919C022817390709F061C0F0938B
:101D40009C02E0939B02DF91CF910895EA01CE17A8
:101D5000DF07E8F54A815B819E0141155105B1F726
:101D6000E901FB83EA8349915991C40FD51FEC1710
:101D7000FD0761F4808191810296840F951FE9012E
:101D800099838883828193819B838A83F0E0E0E05A
:101D900012968D919C9113970097B9F52D913C91D6
:101DA0001197CD010296820F931F20919B023091D3
:101DB0009C022817390739F6309751F510929E0288
:101DC00010929D02B0939C02A0939B02BCCFD38340
:101DD000C28340815181840F951FC817D90761F4D0
:101DE0004E5F5F4F88819981480F591F518340830F
:101DF0008A819B81938382832115310509F0B0CFBD
:101E0000F0939E02E0939D029ECFFD01DC01C0CFC6
:101E100013821282D7CFB0E0A0E0E1E1FFE00C94A2
:101E2000DC0B8C01009751F4CB010E94E60D8C0174
:101E3000C801CDB7DEB7E0E10C94F80BFC01E60F6A
:101E4000F71F9C0122503109E217F30708F49DC0E7
:101E5000D901CD91DC911197C617D70798F0C530FD
:101E6000D10530F3CE0104978617970708F3C61BF8
:101E7000D70B2297C193D1936D937C93CF010E948E
:101E8000820ED6CF5B01AC1ABD0A4C018C0E9D1E92
:101E9000A0919D02B0919E02512C412CF12CE12C7D
:101EA000109731F580919B0290919C0288159905BD
:101EB00009F05CC04616570608F058C08091000132
:101EC00090910101009741F48DB79EB740910401B4
:101ED00050910501841B950BE817F90708F055C0D0
:101EE000F0939C02E0939B02F90171836083A0CF81
:101EF0008D919C91119712966C90129713967C90ED
:101F00001397A815B90559F56C0142E0C40ED11C10
:101F1000CA14DB0420F1AC014A195B09DA011296FC
:101F2000159780F06282738251834083D9016D934B
:101F30007C93E114F10471F0D7011396FC93EE93B6
:101F4000129776CF22968C0F9D1FF9019183808383
:101F5000F301EFCFF0939E02E0939D0269CF481604
:101F6000590608F42C017D01D3019ACFCB010E94C0
:101F7000E60D7C01009749F0AE01B8010E94C80F40
:101F8000C8010E94820E870153CF10E000E050CFBD
:101F9000FB01DC0102C001900D9241505040D8F786
:101FA0000895FB01DC0101900D920020E1F70895F6
:041FB000F894FFCFD3
:101FB40000009F0280000000344200007C420000C8
:101FC400000000000000F501230150014202B301AA
:101FD4005F01A5016E616E00696E66006F76660032
:101FE400496E697A69616C697A7A617A696F6E653A
:101FF4002E2E2E000D0A007468657461303A20009C
:10200400207468657461313A2000207468657461D5
:04201400323A20003C
:00000001FF
